:020000040800F2
:100000000040002041110008D11A0008DD1A000844
:1000100000000000000000000000000000000000E0
:10002000000000000000000000000000E51A0008C9
:100030000000000000000000F11A0008FD1A00088E
:100040008511000885110008851100088511000838
:1000500085110008690B000885110008851100084A
:100060008511000885110008851100088511000818
:10007000851100088511000885110008D10B0008C2
:1000800085110008851100088511000885110008F8
:1000900085110008851100088511000885110008E8
:1000A0008511000885110008851100081D0400084D
:1000B00085110008851100088511000885110008C8
:1000C0005FF808F180B588B000AF78600023FB616D
:1000D0000023BB6100237B6100233B610023FB60A5
:1000E0008A4B5B680C221340FB61FB69042B0CD02C
:1000F00002D8002B05D03AE0082B0AD00C2B32D0C6
:1001000035E07B68824A1A6035E07B68804A1A6075
:1001100031E07E4B5A68F0239B031340BB617B4B5D
:100120005A68C0235B0213407B61BB699B0C02339E
:10013000BB617B69002B05D1BB69764A5A437B685A
:100140001A6018E0714BDB6A0F22134001333B61E8
:1001500039696F4801F0CEFD03001A00BB695A43AC
:100160007B681A6007E07B686B4A1A6003E07B6873
:10017000674A1A60C046654B5B68F0221340FB611A
:10018000FB691B09FB61654AFB69D3181B78DBB26D
:10019000FB607B681A68FB68DA407B685A605B4BDF
:1001A0005A68E023DB001340FB61FB691B0AFB611B
:1001B0005A4AFB69D3181B78DBB2FB607B685A682C
:1001C000FB68DA407B689A60504B1A6B80235B00B7
:1001D000134003D17B68524ADA6010E04B4B5A68F7
:1001E0008023DB01134005D17B689B685A087B683C
:1001F000DA6004E07B689B689A087B68DA60434BAE
:100200001B6B4022134003D17B68464A1A6103E00E
:100210007B68802212021A613C4B1B6B1022134038
:1002200003D17B683A4A5A6103E07B681A687B68AD
:100230005A61364B1B6B0322134004D17B689A68CA
:100240007B689A611EE0314B1B6B03221340012B2C
:1002500004D17B681A687B689A6113E02B4B1B6B97
:1002600003221340022B04D17B68802212029A6180
:1002700008E0264B1B6B03221340032B02D17B6843
:10028000234A9A61214B1A6BC0239B02134004D16D
:100290007B689A687B68DA6127E01C4B1A6BC02385
:1002A0009B021A4080235B029A4204D17B681A6841
:1002B0007B68DA6119E0154B1A6BC0239B021A4068
:1002C00080239B029A4204D17B6880221202DA6169
:1002D0000BE00E4B1A6BC0239B021A40C0239B02FB
:1002E0009A4202D17B680A4ADA61084B1B6B802272
:1002F000134003D17B68084A1A6203E07B681A68DE
:100300007B681A62C046BD4608B080BD001002403E
:1003100000127A0000093D00006CDC0200000020A1
:10032000809FD5001280000080B582B000AF786059
:100330000A00FB1C1A70FB1C1B78002B06D0094B13
:10034000084A51697A680A435A6106E0054B054A32
:1003500052697968C9430A405A61C046BD4602B035
:1003600080BDC0460010024080B582B000AF78600A
:100370000A00FB1C1A70FB1C1B78002B06D0094BD3
:10038000084AD1697A680A43DA6106E0054B054AF2
:10039000D2697968C9430A40DA61C046BD4602B0F5
:1003A00080BDC0460010024080B584B000AF7860C8
:1003B0007B68180002F014FB02000C23FB181A8063
:1003C0000E23FB1800221A801AE00E23FB181B884C
:1003D0007A68D3181B789BB20F4A1900100001F0FD
:1003E0002DF9C0460C4B4021180001F047F9031EBF
:1003F000F8D00E23FB181A880E23FB1801321A803E
:100400000E23FA180C23FB1812881B889A42DCD39F
:10041000C046BD4604B080BD00380140B0B500AF55
:100420000C4A0D4B1100180001F046F9031E0ED0C6
:100430000A4B1B785A1CD1B2084A11701C00064B9B
:10044000180001F00DF90300DAB2054B1A55C04649
:10045000BD46B0BD0501050000380140D4080020AC
:10046000D808002080B59CB000AF786039600C23BC
:10047000FB1800221A60043360220021180002F0E9
:1004800017FA3B687A6807490C20381802F056FAC8
:100490000C23FB181800FFF787FFC046BD461CB0B1
:1004A00080BDC0468085000880B58AB000AF786006
:1004B0007B68434A934207D12023FB18414A190025
:1004C000100000F06FFF3DE07B683F4A934239D156
:1004D0008023DB0201211800FFF726FF8023DB01C8
:1004E00001211800FFF740FF364B00220D211800B4
:1004F00001F034F8334B00220E21180001F02EF8E1
:10050000304B00220F21180001F028F82023FB189F
:10051000E02212021A602023FB1802221A71202303
:10052000FB1803225A712023FB1800229A71202302
:10053000FB180022DA712023FB18224A1900100050
:1005400000F030FF0C23FB1810229A810C23FB18BB
:1005500000221A800C23FB18822252005A800C239E
:10056000FB18E022D2009A800C23FB180022DA80CC
:100570000C23FB1800221A810C23FB188022920006
:100580005A810C23FB180022DA810C23FB18072266
:100590001A820C23FA187B681100180000F0F4FD91
:1005A00080235B01084A1900100000F091FE7B686F
:1005B0000121180000F06CFEC046BD460AB080BDA7
:1005C00000300140000400480038004080B582B08F
:1005D00000AF78600A00FB1C1A70C0467B680221DD
:1005E000180000F0BBFE031EF8D0FB1C1A787B68D5
:1005F0001100180000F08AFEC0467B680121180037
:1006000000F0ACFE031EF8D07B68180000F094FEEA
:10061000C046BD4602B080BD80B582B000AF7860F4
:100620000A00FB1C1A70C0467B680221180000F00B
:1006300095FE031EF8D0FB1C1A787B681100180089
:1006400000F064FEC0467B680121180000F086FEC1
:10065000031EF8D07B68180000F06EFE030018003F
:10066000BD4602B080BDC04680B582B000AF02007A
:10067000FB1D1A70FB1DFA1D1278013A1A70FB1D42
:100680001B78002BF6D1C046BD4602B080BDC046E7
:1006900090B585B000AF0200FB1D1A70BB1D0A1C8F
:1006A0001A70114B2021180000F048FF0F23FC188E
:1006B000FB1D1B780D4A19001000FFF7ADFF03006A
:1006C0002370BB1D1B78094A19001000FFF77EFF3D
:1006D000054B2021180000F021FF0F23FB181B7889
:1006E0001800BD4605B090BD000400480038004029
:1006F00090B585B000AF0200FB1D1A70104B202191
:10070000180000F01BFFFB1D1B780E4A190010009B
:10071000FFF75CFF0F23FC180A4B00211800FFF7BE
:100720007BFF03002370064B2021180000F0F6FE2B
:100730000F23FB181B781800BD4605B090BDC046BE
:10074000000400480038004090B585B000AF396023
:100750001100FB1D021C1A70BB1D0A1C1A701D4BD8
:100760002021180000F0EAFE0E23FC18FB1D1B7868
:10077000194A19001000FFF74FFF030023700120F2
:10078000FFF772FF0F23FB1800221A700FE03B687F
:100790005A1C3A601B78104A19001000FFF716FF28
:1007A0000F23FB181A780F23FB1801321A700F233E
:1007B000FA18BB1D12781B789A42E8D3054B20210A
:1007C000180000F0ABFE0E23FB181B781800BD4686
:1007D00005B090BD000400480038004080B582B0EC
:1007E00000AF78601F4B0821180000F0A7FE1E4BD9
:1007F000052219003020FFF7A7FF1B4B0522190027
:100800002A20FFF7A1FF7B6820221900A020FFF714
:100810009BFF3F212120FFF73BFF3F212220FFF7D5
:1008200037FF0A212420FFF733FF28212520FFF777
:100830002FFF07212620FFF72BFF20213120FFF774
:1008400027FF0E212020FFF723FF064B0821180069
:1008500000F064FE0A20FFF707FFC046BD4602B065
:1008600080BDC046000400481000002080B582B062
:1008700000AF8023DB0201211800FFF755FD3B008C
:1008800028221A603B0001221A713B0003225A7190
:100890003B0000229A713B000F4A1900100000F043
:1008A00081FD3B0010221A603B0000221A713B00C0
:1008B00000229A713B000122DA713B00064A1900BE
:1008C000100000F06FFD054B1800FFF7EDFDC0466E
:1008D000BD4602B080BDC04600040048003800405C
:1008E00090B583B000AFFB1D00221A70264B082183
:1008F000180000F023FE254B1800FFF76FFFC046DD
:10090000214B1021180000F0E5FD031EF8D10A204C
:10091000FFF7AAFEFC1D0720FFF7EAFE0300237085
:10092000FB1D1A781A4B11001800FFF79BFDFB1DE9
:100930001B782022134011D0FB1D1A78154B110093
:100940001800FFF78FFD144A144B11001800FFF731
:1009500089FD20212720FFF79BFE0CE0FB1D1B7863
:100960001022134007D00E4B1800FFF77BFD10211B
:100970002720FFF78DFE044B0821180000F0CEFD64
:10098000C046BD4603B090BD00040048C009002029
:10099000A0850008B4850008A0090020C4850008CF
:1009A000D8850008B0B582B000AF02003960FB1DE9
:1009B0001A70FB1D1B787F2B32D92F4CFB1D1B7827
:1009C0001A000F231340083B99082B4AFB1D1B7884
:1009D00018000F230340083B9B0806339B00D318E5
:1009E00004331B68FA1D1278100003220240D20063
:1009F000FF2090400200D2431A403B689B01FF2039
:100A00001840FB1D1B781D0003232B40DB00984082
:100A100003001A438B1D9B00E31804331A6027E080
:100A2000164CFB1D1B785BB29B081449FA1D12780B
:100A300052B29208C03292005258F91D097808004B
:100A400003210140C900FF2088400100C943114033
:100A50003A689201FF201040FA1D12781500032217
:100A60002A40D200904002000A43C0339B001A5132
:100A7000C046BD4602B0B0BD00ED00E000E100E0C0
:100A800080B582B000AF78607B680E4A934201D98E
:100A9000012312E00C4B7A681202120A013A5A60E2
:100AA00001235B4203211800FFF77CFF064B002265
:100AB0009A60054B07221A6000231800BD4602B059
:100AC00080BDC046FFFFFF0010E000E080B500AF32
:100AD0008023DB050021180000F0D4FE8023DB0515
:100AE0000021180000F0B8FE1C4B00221A701C4BAD
:100AF00000221A708023DB050121180000F0C2FEDD
:100B00009023DB050121180000F008FD05E090238B
:100B1000DB050121180000F001FD8023DB05180032
:100B200000F0A6FE0300A52BF1D99023DB050121DF
:100B3000180000F003FD8023DB050021180000F001
:100B4000A1FE084B01221A708023DB05002118004A
:100B500000F082FEC046BD4680BDC04615000020A4
:100B60008D0800208C08002080B500AF022001F025
:100B70003DF80300012B22D1022001F057F8114B60
:100B80001B78DBB2012B09D18023DB050121180082
:100B900000F078FE0B4B00221A7010E08023DB057A
:100BA0000021180000F06EFE8023DB05180000F025
:100BB0005FFE0200044B1A60044B01221A70C0460B
:100BC000BD4680BD8C080020900800201500002044
:100BD00080B500AF8023DB050121180000F09CFEEA
:100BE0000300012B11D18023DB050121180000F047
:100BF000D3FE8023DB050021180000F043FE044BE8
:100C000001221A70034B01221A70C046BD4680BDF6
:100C10008D0800201500002080B582B000AF7860FC
:100C2000054B7A681A60C046034B1B68002BFBD14A
:100C3000C046BD4602B080BD9808002080B500AF18
:100C4000054B1B68002B04D0034B1B685A1E024B3C
:100C50001A60C046BD4680BD9808002080B500AF30
:100C600080231B0301211800FFF75EFB0C4BF022D1
:100C700092001A600A4B01221A71094B00229A71E4
:100C8000074B0022DA71064B01225A71044B054AC8
:100C90001900100000F086FBC046BD4680BDC0466E
:100CA000F00900200008004880B500AF084B802202
:100CB00092011A60064B00221A71054A9023DB0547
:100CC0001100180000F06EFBC046BD4680BDC04656
:100CD000F009002080B500AF80239B001B4A19005B
:100CE000100000F01BFC80235B00184A1900100064
:100CF00000F014FC154B8021180000F00FFC134B82
:100D00004021180000F00AFCC820FFF785FF80236F
:100D10009B000E4A1900100000F010FC80235B00BD
:100D20000A4A1900100000F009FC084B8021180045
:100D300000F004FC054B4021180000F0FFFBC82028
:100D4000FFF76AFFC046BD4680BDC04600080048A8
:100D500080B500AF80239B000C4A1900100000F002
:100D6000EDFB80235B00094A1900100000F0E6FB50
:100D7000064B8021180000F0E1FB044B40211800D5
:100D800000F0DCFBC046BD4680BDC0460008004800
:100D900080B500AF3A4B01221A60394B00229A719C
:100DA000374B01221A71364B01225A71344A902373
:100DB000DB051100180000F0F5FA314B02221A6031
:100DC0002F4B0122DA712E4B00221A712C4A9023EC
:100DD000DB051100180000F0E5FA2A4B00221A8109
:100DE000284B00225A80274B02221A80254B0122D1
:100DF00052425A60234A8023DB051100180000F09C
:100E0000B3FC8023DB050121180000F0C5FD802321
:100E1000DB0501220121180000F054FD1A4B0222CB
:100E20001A60194B01229A71174B00221A71164B46
:100E300010225A71144B180000F068FE134B0F2259
:100E40001A70124B01229A70104B01225A700F4BEC
:100E5000180000F0F9FE0D4B05221A700B4B012211
:100E60009A700A4B00225A70084B180000F0ECFEF2
:100E7000074B1800FFF726F9C046BD4680BDC046A7
:100E8000F0090020E4090020F8090020E009002012
:100E9000240A002090B58BB000AF00F08FFD8023B6
:100EA0009B0201211800FFF73FFA01210120FFF703
:100EB0005BFAFFF7D3FEFFF7F7FE1E23FB180022B5
:100EC0001A701D23FB1800221A708C4B7B628C4B0E
:100ED0001800FFF7F7F88A4B5B686421180000F0F0
:100EE00009FF03001800FFF7CBFDFFF751FF0023B8
:100EF0003B620023BB6100237B61824B9B6818002F
:100F000001F0DAFA031C191C7F4800F0F7FF031CFC
:100F10003B617E4BFB601F23FB1800221A70FFF71A
:100F2000D9FEFFF7A3FCFFF7D5FE1F23FB181B78A4
:100F3000002B05D11F23FB1801221A70FFF7C6FDF5
:100F40001F23FB181B78002B63D0714B1B78DBB27F
:100F5000002B5ED01F23FB1800221A706D4B1B78EC
:100F6000DBB2002B03D06C4B00221A604CE06A4BC2
:100F70001B68180001F0A0FA031C8021C905181C89
:100F800000F0BCFF031C3969181C01F081F9031C37
:100F90007B617969F86801F07BF9031C3B62386A70
:100FA00001F0D6FB5D4A5E4B00F05AFF031E04D0F1
:100FB0005C4B4021180000F0B1FAFC218905386A29
:100FC00000F088FF031E06D080235B00554A1900FD
:100FD000100000F0A3FAFE218905386A00F07AFFBC
:100FE000031E04D04F4B8021180000F097FA4649A9
:100FF000386A00F06FFF031E06D080239B00494A29
:101000001900100000F08AFA1420FFF705FEFFF720
:101010009FFE1E23FC1880239A019023DB051100FC
:10102000180000F057FA030023701E23FB181B78EA
:10103000002B13D080239B003A4A1900100000F0C7
:101040006DFA1420FFF7E8FD80239B00354A190054
:10105000100000F073FA344B7B6201E0274B7B6297
:10106000324A334B1000190008231A0001F0E2FB4A
:10107000386A01F06DFB03000C002E4938001A009D
:10108000230001F05BFC3A00284B1100180001F02E
:1010900077FC264B180001F0A3FC03001A00234B39
:1010A000D218254B1000190002231A0001F0C2FBD0
:1010B0007A6A1E4B1100180001F062FC1B4B1800ED
:1010C00001F08EFC03001A00184BD2181B4B1000C5
:1010D000190003231A0001F0ADFB3220FFF79CFD3D
:1010E000FFF7FEFB3220FFF797FD3B6ABB611D2334
:1010F000FB181E22BA1812781A7016E7208600080C
:10110000000A0020240A0020000040400080AB4379
:10111000150000208D080020900800207B14AE47A9
:10112000E17A843F0008004824860008C0090020B6
:101130002886000830860008388600083C860008AB
:10114000002103E00A4B5B584350043109480A4B25
:1011500042189A42F6D3094A02E00023136004328F
:10116000074B9A42F9D300F029FCFFF793FE704732
:101170006C8A0008000000208C0800208C080020E9
:101180004C0A0020FEE7000080B584B000AF786014
:1011900039600E23FB1800221A800E23FB187A6890
:1011A00012881A800E23FB180E22BA181188C12249
:1011B00092010A401A803B681A883B68DB89134316
:1011C0009AB23B68DB8813439AB23B681B8913438E
:1011D0009AB23B685B8913439AB23B689B8913437D
:1011E00099B20E23FB180E22BA1812880A431A80ED
:1011F0007B680E22BA1812881A800E23FB187A68B0
:1012000092881A800E23FB180E22BA1812881E49E3
:101210000A401A803B6899880E23FB180E22BA18E0
:1012200012880A431A807B680E22BA1812889A80A4
:101230003B681A8A7B681A820E23FB187A68128828
:101240001A800E23FB180E22BA18128804218A4332
:101250001A803B6859880E23FB180E22BA18128890
:101260000A431A807B680E22BA1812881A807B689B
:101270009B8B9BB2054A13409AB27B689A83C04607
:10128000BD4604B080BDC046FFF0FFFFFFF7FFFF83
:1012900080B582B000AF78600A00FB1C1A70FB1C9E
:1012A0001B78002B08D07B681B889BB2402213431D
:1012B0009AB27B681A8007E07B681B889BB2402249
:1012C00093439AB27B681A80C046BD4602B080BD87
:1012D00080B582B000AF78600A00BB1C1A807B68C2
:1012E0009B889BB2084A13409AB27B689A807B68BD
:1012F0009B889AB2BB1C1B8813439AB27B689A8066
:10130000C046BD4602B080BDFFEFFFFF80B584B090
:1013100000AF78600A00FB1C1A700023FB607B683A
:10132000FB60FB680C33FB60FB68FA1C12781A70D8
:10133000C046BD4604B080BD80B584B000AF7860C3
:101340000023FB607B68FB60FB680C33FB60FB6881
:101350001B78DBB21800BD4604B080BD80B584B0F8
:1013600000AF78600A00BB1C1A800F23FB18002214
:101370001A707B681B899BB2BA1C128813409BB2FF
:10138000002B04D00F23FB1801221A7003E00F2357
:10139000FB1800221A700F23FB181B781800BD469B
:1013A00004B080BD80B586B000AF7860396000239E
:1013B0007B6100233B610023FB6000237B6181E0B4
:1013C00001227B699A4013003B613B681B683A69C4
:1013D0001340FB60FA683B699A4270D13B681B7905
:1013E000012B03D03B681B79022B38D17B689B68AB
:1013F0007A695200032191400A00D2431A407B6867
:101400009A607B689A683B685B7919007B695B002E
:1014100099400B001A437B689A607B689B889BB25B
:101420007A691204120C012191400A0092B2D2434F
:1014300092B213409AB27B689A807B689B889BB279
:101440001AB23B689B7919007B691B041B0C9940FD
:101450000B001BB213431BB29AB27B689A807B6865
:101460001B687A695200032191400A00D2431A4056
:101470007B681A607B681A683B681B7919007B6976
:101480005B0099400B001A437B681A607B68DB683D
:101490007A691204120C5200032191400A00D243CF
:1014A0001A407B68DA607B68DA683B68DB79190090
:1014B0007B695B0099400B001A437B68DA607B69AB
:1014C00001337B617B690F2B00D879E7C046BD46AD
:1014D00006B080BD80B584B000AF78600A00BB1C48
:1014E0001A800F23FB1800221A707B681B8A9BB29C
:1014F000BA1C128813409BB2002B04D00F23FB1898
:1015000001221A7003E00F23FB1800221A700F2328
:10151000FB181B781800BD4604B080BD80B582B0B2
:1015200000AF78600A00BB1C1A80BB1C1A887B685D
:101530009A61C046BD4602B080BDC04680B582B04B
:1015400000AF78600A00BB1C1A807B68BA1C128846
:101550001A85C046BD4602B080BDC04680B584B085
:1015600000AF786008001100BB1C021C1A807B1CB5
:101570000A1C1A700023FB600023BB607B1C1A78D6
:10158000BB1C1B8807210B409B009A401300FB608B
:10159000BB1C1B88DB089BB21800BB1C1B88DB082C
:1015A0009BB21A007B6808329200D358BA1C12888A
:1015B00007210A4092000F2191400A00D2431A40AD
:1015C00011007B68020008329200D150BB1C1B88BE
:1015D000DB089BB21A007B6808329200D258FB6885
:1015E0001343BB60BB1C1B88DB089BB21A007B68E3
:1015F00008329200B968D150C046BD4604B080BDE3
:1016000080B584B000AF78600A4B1B68002B02D114
:10161000084B094A1A60074B1B68FB60054B1A68A8
:101620007B68D218034B1A60FB681800BD4604B0F3
:1016300080BDC0469C0800204C0A002080B582B0C6
:1016400000AF78600A00BB1C1A80BB1C1B88DB053E
:10165000DB0D9AB27B681A85C046BD4602B080BDDC
:1016600080B582B000AF78607B689B8C9BB2DB0555
:10167000DB0D9BB21800BD4602B080BD80B584B0C2
:1016800000AF786039600F23FB1800221A707B6866
:10169000DB693A68134004D00F23FB1801221A704B
:1016A00003E00F23FB1800221A700F23FB181B788E
:1016B0001800BD4604B080BD80B586B000AF78602C
:1016C00039600023FB6000237B610023BB60132390
:1016D000FB1800221A703B681B121A00FF231340EC
:1016E000BB603B68FF2213407B6101227B699A400B
:1016F00013007B61BB68012B05D17B681A687B698D
:1017000013407B610DE0BB68022B05D17B685A68F2
:101710007B6913407B6104E07B689A687B691340B6
:101720007B613B681B0CFB600122FB689A40130045
:10173000FB607B68DA69FB681340FB607B69002B08
:1017400007D0FB68002B04D01323FB1801221A706A
:1017500003E01323FB1800221A701323FB181B78D5
:101760001800BD4606B080BD80B584B000AF78607B
:1017700039600E23FB1800221A800E23FB187A68AA
:1017800012881A807B682D4A934208D07A68802399
:10179000DB059A4203D07B68294A934210D10E237D
:1017A000FB180E22BA18128870218A431A803B68EF
:1017B00059880E23FB180E22BA1812880A431A8081
:1017C0007B68204A934210D00E23FB180E22BA18D1
:1017D00012881D490A401A803B6819890E23FB189C
:1017E0000E22BA1812880A431A807B680E22BA1891
:1017F00012881A803B685A687B68DA623B681A88EC
:101800007B681A857B680D4A93420BD07B680F4A30
:10181000934207D07B680E4A934203D07B680D4AFF
:10182000934204D13B689B7A9AB27B681A867B68A4
:1018300001229A82C046BD4604B080BD002C014002
:101840000004004000100040FFFCFFFF004001408A
:10185000004401400048014080B582B000AF78608C
:1018600039607B683A685A62C046BD4602B080BDA6
:1018700080B582B000AF78607B685B6A1800BD46B7
:1018800002B080BD80B582B000AF78600A00FB1C5A
:101890001A70FB1C1B78002B08D07B681B889BB23E
:1018A000012213439AB27B681A8007E07B681B8889
:1018B0009BB2012293439AB27B681A80C046BD4610
:1018C00002B080BD80B582B000AF78600800110022
:1018D000BB1C021C1A807B1C0A1C1A707B1C1B7808
:1018E000002B09D07B689B899AB2BB1C1B881343D1
:1018F0009AB27B689A810AE07B689B899BB2BA1C8A
:101900001288D24392B213409AB27B689A81C04641
:10191000BD4602B080BDC04680B584B000AF7860DF
:101920000A00BB1C1A800F23FB1800221A700C231C
:10193000FB1800221A800A23FB1800221A807B68F9
:101940001B8A9AB20C23FB18B91C09880A401A801A
:101950007B689B899AB20A23FB18B91C09880A4044
:101960001A800C23FB181B88002B09D00A23FB18B4
:101970001B88002B04D00F23FB1801221A7003E0F0
:101980000F23FB1800221A700F23FB181B78180076
:10199000BD4604B080BDC04680B582B000AF78605F
:1019A0000A00BB1C1A80BB1C1B88DB439AB27B68F5
:1019B0001A82C046BD4602B080BDC04680B500AFA9
:1019C0001B4B1B4A126801210A431A60184B184A24
:1019D000526818490A405A60154B154A1268164950
:1019E0000A401A60124B124A126814490A401A60DF
:1019F0000F4B0F4A526812490A405A600C4B0C4A6E
:101A0000D26A0F218A43DA62094B094A126B0D49E7
:101A10000A401A63064B064A526B01218A435A63F5
:101A2000034B00229A6000F00FF8C046BD4680BD0F
:101A3000001002400CB8FFF8FFFFF6FEFFFFFBFFAF
:101A4000FFFFC0FFACFEFFFF80B500AF1D4B1122B2
:101A50001A601D4B1C4A52685A601B4B1A4A526846
:101A60005A60194B184A526818490A405A60164B76
:101A7000154A5268A02189030A435A60124B124A40
:101A80001268802149040A431A60C0460E4B1A6846
:101A900080239B041340F9D00B4B0B4A526803215F
:101AA0008A435A60084B084A526802210A435A6026
:101AB000C046054B5B680C221340082BF9D1C04689
:101AC000BD4680BD0020024000100240FF7FC0FFE5
:101AD00080B500AFC046BD4680BDC04680B500AFF2
:101AE000FEE7C04680B500AFC046BD4680BDC046DB
:101AF00080B500AFC046BD4680BDC04680B500AFD2
:101B0000FFF79CF8C046BD4680BDC04680B584B096
:101B100000AF78600023FB60334BFB607B689B79F0
:101B2000002B4FD0304A304B19687B681B68DB4371
:101B30000B4013602C4A2C4B59687B681B68DB43B5
:101B40000B4053607B681B791A00FB689B18FB6095
:101B5000FB68FA6811687A6812680A431A60224AB8
:101B6000214B99687B681B68DB430B4093601E4ADE
:101B70001D4BD9687B681B68DB430B40D3607B68D7
:101B80005B79102B0ED1184A174B99687B681B683C
:101B90000B439360144A144BD9687B681B680B4352
:101BA000D3601DE0104BFB607B685B791A00FB681B
:101BB0009B18FB60FB68FA6811687A6812680A4330
:101BC0001A600DE07B681B791A00FB689B18FB60AC
:101BD000FB68FA6811687A681268D2430A401A6092
:101BE000C046BD4604B080BD0004014080B584B04D
:101BF00000AF78600F23FB1800221A700A4B5B6954
:101C00007A68134004D00F23FB1801221A7003E0F6
:101C10000F23FB1800221A700F23FB181B781800E3
:101C2000BD4604B080BDC0460004014080B582B00E
:101C300000AF7860034B7A685A61C046BD4602B077
:101C400080BDC0460004014080B584B000AF78601C
:101C50000023FB607B689B78002B39D0244A7B688B
:101C60001B789B08DBB2C0339B009B58FB607B68F2
:101C70001B781A0003231340DB00FF229A40130055
:101C8000DA43FB681340FB607B685B789B01FF22B3
:101C90001A407B681B78190003230B40DB009A4035
:101CA0001300FA681343FB6011497B681B789B089B
:101CB000DBB2C0339B00FA685A500D4B7A68127839
:101CC00011001F220A40012191400A001A600AE017
:101CD00007497B681B781A001F23134001229A4092
:101CE000130080228B50C046BD4604B080BDC04664
:101CF00000E100E0002243088B4274D303098B42C9
:101D00005FD3030A8B4244D3030B8B4228D3030CCB
:101D10008B420DD3FF22090212BA030C8B4202D36D
:101D20001212090265D0030B8B4219D300E0090A95
:101D3000C30B8B4201D3CB03C01A5241830B8B429E
:101D400001D38B03C01A5241430B8B4201D34B0387
:101D5000C01A5241030B8B4201D30B03C01A5241EC
:101D6000C30A8B4201D3CB02C01A5241830A8B4271
:101D700001D38B02C01A5241430A8B4201D34B025A
:101D8000C01A5241030A8B4201D30B02C01A5241BE
:101D9000CDD2C3098B4201D3CB01C01A5241830972
:101DA0008B4201D38B01C01A524143098B4201D3AC
:101DB0004B01C01A524103098B4201D30B01C01AD7
:101DC0005241C3088B4201D3CB00C01A5241830851
:101DD0008B4201D38B00C01A524143088B4201D37E
:101DE0004B00C01A5241411A00D2014652411046DE
:101DF0007047FFE701B5002000F006F802BDC046BD
:101E00000029F7D076E770477047C0468446101C1B
:101E100062468C46191C634600E0C0461FB500F0C0
:101E20002DFC002801D40021C8421FBD10B500F0D0
:101E300081FB4042013010BD10B500F01FFC0028AE
:101E400001DB002010BD012010BDC04610B500F020
:101E500015FC002801DD002010BD012010BDC0468A
:101E600010B500F0A7FB002801DC002010BD012008
:101E700010BDC04610B500F09DFB002801DA00201F
:101E800010BD012010BDC0468446081C6146FFE716
:101E90001FB500F0B9F9002801D40021C8421FBDC8
:101EA00010B500F045F94042013010BD10B500F00A
:101EB000ABF9002801DB002010BD012010BDC04699
:101EC00010B500F0A1F9002801DD002010BD0120AF
:101ED00010BDC04610B500F053F9002801DC002009
:101EE00010BD012010BDC04610B500F049F9002812
:101EF00001DA002010BD012010BDC046F0B55646E5
:101F000044465F464D46F0B444024600C70F83B0D6
:101F10008846650A360EBA463DD0FF2E22D00023F1
:101F2000EC00802599469B46ED0425437F3E4346C1
:101F30005C025800DB0F640A000E984636D0FF287A
:101F400030D080230021E400DB041C437F38301AAA
:101F50000190484642460843724E800030587A400D
:101F600013008746002D44D108239946063B9B4623
:101F7000DDE70122FF2000241A406402C305640A41
:101F8000D2071C431443200003B03CBC9046994642
:101F9000A246AB46F0BD002D20D104239946033B59
:101FA0009B46C4E7002C17D1022102E0002C0AD185
:101FB0000121321A01924A4643460A435A48920086
:101FC00082587B409746200000F016FC431F763075
:101FD0009C4040420021BAE70321B8E7280000F006
:101FE0000BFC431F9D4000237630464299469B469A
:101FF0009DE70C239946093B9B4698E780240022E5
:10200000E403FF20B9E70024C2468B465A465346F4
:10201000022AAED0032A7DD0012A31D1012200202C
:102020001A400024A9E70122101A1B2856DD1A4085
:1020300000200024A1E78023DB031D424BD1802335
:10204000DB032B435C02640A3A00FF2095E76D0135
:102050006001854230D2019A0024013A01921B228C
:102060000127290064006D00002901DBA84201D886
:102070002D1A3C43013A002AF3D16A1E95412C43A4
:1020800001987F300028CEDD620704D00F22224065
:10209000042A00D00434220103D5244A01981440B4
:1020A0008030FE2800DD64E70122A401640AC0B28A
:1020B0001A4062E72C00A9E72D1A1A220124CFE763
:1020C0006B02BCD500248023DB031C436402640A3A
:1020D0004246FF2051E71C42B3D1F4E72100202201
:1020E000C140101A8440621E94410C43620704D020
:1020F0000F222240042A00D00434620104D50122B8
:1021000001201A40002438E70122A401640A1A4081
:10211000002032E78023DB031C436402640A52463A
:10212000FF202AE74086000880860008FFFFFFF7AF
:10213000430270B542004C005D0AC30F4802120E04
:10214000460A240EC90FFF2A0FD0FF2C11D0012000
:10215000A24200D070BDB542FCD18B420DD0002A06
:10216000F8D12800431E9841F4E70120002DF1D159
:10217000EBE70120002EEDD1E9E70020EAE7C046B9
:102180004302F0B542005D0AC30F4802440A48000A
:10219000120E000EC90FFF2A1FD0FF2822D0002ADE
:1021A00009D16E426E4100280FD1002C0DD10020C4
:1021B000002D09D005E0002801D1002C01D08B4270
:1021C00013D0584201231843F0BD002EF7D04842E7
:1021D0004141012049420843F6E7002DDDD00220AD
:1021E0004042F1E7002CDAD0F9E78242E9DC04DB77
:1021F000A542E6D80020A542E6D25842434101203C
:102200005B421843E0E7C0464302F0B542004C0091
:102210005E0AC30F4802120E450A240EC90FFF2A98
:1022200017D0FF2C19D0002A0BD170427041002C1E
:1022300017D0002807D048424141012049420843B5
:10224000F0BD002C13D08B4214D058420123184308
:10225000F6E70220002EF3D1E3E70220002DEFD1B4
:10226000E1E7002DE5D10020002EE9D0EDE7002DBB
:10227000E9D1EAE7A242E8DC04DBAE42E5D800207F
:10228000AE42DDD25842434101205B421843D7E7BA
:10229000F0B557464E4645464300E0B446028846F0
:1022A000760A1F0EC40F002F47D0FF2F25D0002322
:1022B00080259A469946F600ED042E437F3F43461B
:1022C00042465D02D20F5B006D0A1B0E904640D065
:1022D000FF2B39D080220020ED00D20415437F3B34
:1022E000FB1842465746591C62408C4607430F2F45
:1022F0005CD86F49BF00C9598F46002E45D10823CD
:102300009A46063B9946DAE7424602282DD0032832
:1023100000D1C3E0012800D0A2E000250026024041
:10232000D4B27602ED05760A2E43E4072643300048
:102330001CBC90469946A246F0BD002E1AD104233B
:102340009A46033B9946BAE72A00511E8A41901CDF
:10235000C6E70120002DC3D0280000F04DFA431F2E
:1023600076309D4043420020BAE70124FF25144007
:102370000026D6E7300000F03FFA431F9E400023BE
:10238000763047429A46994699E70C239A46093B8C
:10239000994694E780260024F603FF25C1E735001F
:1023A0004846B2E7350022004846AEE72904090C4A
:1023B0000800370C3604360C2C0C79437043674305
:1023C0007443060C64183619B14203D980214902BE
:1023D000884647440004000C310409188D01681E2A
:1023E0008541890E2943350CED19AD010D432901B5
:1023F00004D5012369081D4063460D4319007F3150
:10240000002925DD680704D00F202840042800D0CB
:102410000435280103D5274980330D401900FE29D2
:10242000A3DC0124AD016E0A1440CDB279E780200F
:10243000C003064207D0054205D128434602760A6A
:102440004446FF256DE706437602760AFF2568E7D6
:102450000124611A1B2905DD14400025002660E7D0
:102460006346CBE72E002023CE40591A8D406B1EC9
:102470009D412E43730704D00F233340042B00D01B
:102480000436730104D5012401251440002648E7D1
:102490000124B601760A1440002542E78026012473
:1024A000F6032E437602760A1440FF2539E7C0462C
:1024B000C0860008FFFFFFF770B5041E28D000F0AB
:1024C0009BF99E231B1A962B0ADC9622D21A944063
:1024D0006202520AD8B25202520AC005104370BDBD
:1024E000992B18DC9922D21A9440114A2240610794
:1024F00004D00F210C40042C00D00432510103D52C
:102500000B4B1A409F231B1A9201520AD8B2E2E7E2
:1025100000200022DFE705222500121AB921D5404C
:102520002200C91A8A40541EA2412C001443DCE741
:10253000FFFFFFFBF0B55F4656464D464446F0B4FC
:102540001F035C00DB0F9A46194B0E034D00C90FA9
:102550008046360B6D0D8B4691463F0B640D9D42B8
:1025600019D0134B9C421BD00123A54206D0180062
:102570003CBC90469946A246AB46F0BDBE42F6D161
:10258000C845F4D1D34510D0002DF0D1304303001D
:102590005A1E9341EBE7310001230143E7D1E0E705
:1025A0003A430123002AE2D1DEE70023DFE7C046F9
:1025B000FF070000F0B55F46444656464D46F0B46E
:1025C0001F033C0B2C4F0E034D00A3465C008446BA
:1025D000360B6D0DC90F9046640DDB0FBD422BD03D
:1025E000254FBC422ED0002D0ED13043070081462E
:1025F00078427841002C17D15F463A4314D14B46BC
:102600000020002B0AD006E0002C02D158460243DD
:1026100001D099421AD00123484218433CBC90464D
:102620009946A246AB46F0BD0028F2D05842584128
:10263000012240421043F1E737000743D0D0022087
:102640004042EBE75F461743CDD0F8E7A542E2DC16
:1026500005DB5E45DFD808D000205E45DED248426B
:102660004841012340421843D8E7C445D3D800204D
:10267000C445F4D3D2E7C046FF070000F0B55F467B
:102680004D4644465646F0B41C03240BA4462F4C3A
:102690000F034D005E00C90F80463F0B6D0D8B464A
:1026A0009146760DDB0FA54220D0284CA64222D0C1
:1026B000002D12D1384344424441002E20D0002C3A
:1026C0000DD05C42634101245B421C4320003CBCB2
:1026D00090469946A246AB46F0BD002E17D05B450A
:1026E00019D05B465C4201231C43EFE7390002240A
:1026F0000143EBD1D9E7614602241143E6D1D7E784
:1027000061460A43DBD100240028DFD0E9E76146B7
:102710000A43E4D1E5E7B54203DD01225C421443FC
:10272000D4E7B542CDDB6745DBD809D00024674547
:10273000CCD259464C426141012449420C43C5E781
:10274000C845CED80024C845F3D3BFE7FF07000033
:102750004200120E511C4302C9B270B55D0AC40F8B
:10276000012915DDE02189008C466D071B0B6244B1
:10277000002128000D0D2D052B431C4D52052B402B
:10278000520813435B00E4075B082343190070BD44
:10279000002A15D1002D1FD0280000F02DF80A289E
:1027A0001DDC0B232A001B1ADA401300020015322D
:1027B00095400F4A1B03121A52051B0B520DD7E707
:1027C000002D06D080221B0B120313436D07094A0C
:1027D000CEE7084A0023CBE700220023C8E7030026
:1027E0000B3B9D402B000025E3E7C046FFFF0F8019
:1027F00089030000FF0700001C2101231B049842ED
:1028000001D3000C10391B0A984201D3000A083981
:102810001B09984201D30009043902A2105C401838
:102820007047C046040302020101010100000000DC
:102830000000000070B50F2A32D90C0004430B00D1
:10284000A40731D115000400103D2D0901352D01DB
:1028500049191E6826605E6866609E68A660DE682C
:102860001033E66010349942F3D10F234519134019
:10287000032B1BD91C1F0023A4080134A400CE582D
:10288000EE5004339C42FAD103232D1909191A4042
:1028900005D00023CC5CEC5401339A42FAD170BDD0
:1028A0000500002AF5D1FAE70500F2E71A00F8E77B
:1028B00070B583073FD0541E002A3BD0CEB2030030
:1028C000032503E0621E002C34D0140001335A1E8D
:1028D00016702B42F6D1032C24D9FF250D402A0275
:1028E00015432A0415430F2C11D92600103E360932
:1028F000013636011A009B19156055609560D56048
:1029000010329342F8D10F221440032C0AD9261F0B
:10291000B6080136B6001A009B1920C29342FCD1BA
:1029200003221440002C05D0C9B21C1919700133C0
:102930009C42FBD170BD14000300CCE70EB410B56F
:102940009DB002A9029008610B488224886048610A
:10295000012040421FABC881084804CBA400006896
:1029600001938C8100F070F80023029A13701DB05F
:1029700010BC08BC03B01847FFFFFF7F40040020D5
:1029800070B50500830717D102680F4BD318934326
:102990000E4A140013420FD1043002680A4BD318B8
:1029A0009343234208D104300268074BD318934362
:1029B0002342F1D000E001300378002BFBD100F07E
:1029C00007F8280070BDC046FFFEFEFE80808080B4
:1029D000031C0A7801311A700133002AF9D17047BB
:1029E00010B5830727D00378002B26D003000321DE
:1029F00002E01A78002A1CD001330B42F9D1196881
:102A00000F4A104C8A188A4322420FD104331968A6
:102A10000B4A8A188A43224208D104331968084AAB
:102A20008A188A432242F1D000E001331A78002A42
:102A3000FBD1181A10BD0300E1E70020FAE7C046F9
:102A4000FFFEFEFE80808080F0B55F46444656461D
:102A50004D46F0B4C3B00C00119307919346099012
:102A600002F054FC00681990FFF7BAFF1890A38990
:102A70001B0605D523690893002B01D101F06CF9E1
:102A800032AB2593002325AFBB607B601493169374
:102A9000179332AE1A930C935B461B785C46002B5F
:102AA0001CD0252B02D119E0252B03D0013423782B
:102AB000002BF9D15B46E51A10D05B463360BB684A
:102AC00075605B19BB607B6801337B60072B61DC41
:102AD00008360C9B9C46AC4463460C932378002B31
:102AE00061D0012040420B900020631C9B460023D4
:102AF0000D90089010308146303016AA8446403040
:102B0000D3770021002282465D46637801351C00A0
:102B1000203C582C00D9ABE3D448A4000459A74664
:102B20000D9B11945B420D93042308981843089061
:102B30002B78EBE73024119B1EAA1470181D483423
:102B40001B685470AB460022089D0E930023290099
:102B500016ACE2770B9A0F9302331943002A00DA7E
:102B600096E3802295432A001A430E9B0892119007
:102B7000002B00D076E37833BD4913930B9B984626
:102B8000002B00D10CE300239846002400230E9371
:102B90000F946BE23A000799099803F007FA0028AE
:102BA00009D132AE95E7BB68002B04D03A000799F3
:102BB000099803F0FBF9079B0C989B895B0601D5EC
:102BC00001F05EF943B03CBC90469946A246AB4644
:102BD000F0BD1393AB46002A01D001F010FB202377
:102BE00008990B4000D1A8E10722119B07339343BA
:102BF000013294469C4462465C681B6825001C00B8
:102C00000023119216AAD3770B9B0E940F95002BDD
:102C100001DA00F0B9FF802399430891210029438C
:102C200000D1A6E1002398460722B44632AB924673
:102C30001C000E9A0F9B5807D6085146DD083043FA
:102C40002B0005001140013C3031217002001D4372
:102C5000F1D10E920F93089A12946646D20700D4CF
:102C60001EE2302901D101F0CDF83023129D013D43
:102C70002B7032AB5B1B10931295109A13000B9ABA
:102C8000934200DA13000A93002315934346002B66
:102C900002D00A9B01330A930223089A1A409246F3
:102CA00002D00A9B02330A938423089A1A40914661
:102CB00000D0FCE20D9B0A9A9C1A002C00DCF6E284
:102CC0006C49BA687B688846102C1FDD31001025DE
:102CD000464603E0103C0831102C15DD103201335C
:102CE0000E604D60BA607B60072BF3DD3A000799F8
:102CF000099803F05BF9002800D05CE7103CBA6843
:102D00007B6832A9102CE9DCB0460E0041467460A5
:102D10000133A4183160BC607B60072B01DD00F03B
:102D20005BFD16ABDB7F08369846C1E26B1C98460C
:102D30002B782A2B01D101F04BFA302040428346F8
:102D40009B44584600244546092801D901F0DCF986
:102D500090465A46A30001351C196B1E1B7864006F
:102D6000A4181A00303A092AF4D94246A846002C81
:102D700001DA01F08FF80B944546C8E65046089BEF
:102D8000034308932B78C1E630246442A346002015
:102D90009B44904603005A469C00E3185B000135B3
:102DA000D3186A1E14782200303A092AF4D90D93F8
:102DB00042462300ABE61393AB46002A01D001F054
:102DC00012FA1023089A1A430892089B9B0601D412
:102DD00000F049FD0723119A07329A4301339C46BC
:102DE000944463461193536812680F930E92002B1C
:102DF00001DA00F047FD16ABDB7F98460B9B002BFA
:102E000001DA00F065FD8023089A9A4308920E9A31
:102E10000F9B1100194301D100F053FC0F9B002BB5
:102E200001D101F031F80E9C0F9D32ABB1461E006E
:102E3000200029000A22002303F0D6FD013E303293
:102E400032700023200029000A2203F0CDFD030088
:102E500004000D000B43EBD1320032AB9B1A1296EB
:102E60000E940F954E46109307E7C0460087000862
:102E700098880008648800081393AB46002A01D0A4
:102E800001F0DDF90722119B073393430132944689
:102E90009C44624611921A68169201225B68169D44
:102EA0001793179B52425C006408E44B28002100F2
:102EB00005F08AFA002801D000F0CDFD0122DF4B99
:102EC000524228002100FEF7C1FF002801D000F087
:102ED000C2FD0022002316981799FEF7ADFF0028C7
:102EE00001D001F0AAF816ABDB7F9846139B472B65
:102EF00001DD00F02DFFD24B12938023089A9A43F4
:102F000008927D3B0A93109300230B931593BDE623
:102F10000820089B034308932B78F7E51393AB46EF
:102F2000002A01D001F093F91023089A1A432023B4
:102F3000089208990B4000D056E6102208990A40E2
:102F400001D100F02CFE11980200006804320E90AE
:102F500000200F9016A8C3770B9B002B01DA00F01E
:102F600012FE802399430E9B08911192002B00D0F2
:102F700058E60B9B002B01D101F092F800239846F4
:102F8000002300240E930F944EE61393AB46002AC1
:102F900001D001F058F91023089A1A43089220230F
:102FA00008990B4000D171E30722119B073393432B
:102FB000013294469C4462465C681B6825001C00F4
:102FC0000023119216AAD3770B9B0E940F95002B1A
:102FD00001DA00F07BFC802399430891210029430A
:102FE0000B1E00D16CE30023984617E71393AB4602
:102FF000002A01D001F01FF9089B92499B0600D4DA
:10300000A5E00722119B07339343013294469C4469
:1030100062465C681B680E930F9401231192089A14
:10302000134000D1A7E00E9A0F9B1000184301D166
:1030300000F008FE30221EAB1A704C206A461218AF
:103040001278089C5A7000220223200016ADEA77FD
:103050000B9A1843002A01DA00F0EAFF80222000D0
:10306000904302001A430023984608920F208C4692
:10307000B14632AB1C000E9A0F9B01006546114011
:10308000695C013C1E07217011091D090E432B00CC
:10309000350032001D43F0D14E460E920F9312942C
:1030A00032AB1B1B1093E8E5119B1C1D1B680D9395
:1030B000002B00DA34E52B78119427E52B780122D8
:1030C0002B2123E52020089B034308932B781DE543
:1030D0001393119B16A91C1D1B68AB461A00129373
:1030E0000023CB77002A01D100F065FF0B9B002B5A
:1030F00001DA00F08DFE1A000021129802F0B4FBF4
:10310000002801D100F0C0FF129BC31A1A001093CF
:10311000DB43DB171A40002316A9C97F0A928846B1
:1031200011940B931593B1E51393AB46002A00D18C
:1031300035E716ABD97732E71393AB46002A01D0B7
:1031400001F06AF84049089B9B0600D559E7089BA7
:10315000DB0600D5D3E3089B5B0600D4CFE3119BCD
:103160001A8804330E92002211930F920123089AB9
:10317000134000D057E716A8C3770B9B002B01DA4A
:1031800000F079FD80239A4308920E9A0F9B10005D
:10319000184300D088E00B9B9846002B00D0F2E447
:1031A00000230B93109332AB129366E52B786C2BB4
:1031B00001D100F0B8FD4C46089820430890A5E4E2
:1031C000AB46002A01D001F023F8089B9B0601D4EE
:1031D00000F01FFD11990C9A0B681A60D2175A6003
:1031E0000B000433119357E41393AB46002A00D12C
:1031F000EBE516ABD977E8E5119A1393136828210C
:103200000A936B465B181B78AB4628AD2B700023E6
:1032100016A9CB771300043311930023984601338A
:103220000A931093002312950B93159334E52B7892
:10323000002900D06AE40122203167E4FFFFEF7F1C
:10324000748800088488000898880008012308987A
:10325000184308902B7859E46046089B0343089371
:103260002B7853E4002398467833D0491393FDE636
:103270001393AB46002A01D000F0D3FF139B002B21
:1032800000D190E428AD2B70002316AAD377C5E7B0
:1032900078230891C54913930E9A0F9B14001C4381
:1032A000231E119000D16FE400239846DEE6BC682F
:1032B0004346002B0FD016AA1F2394466344336065
:1032C000012373607B6801340133BC607B60072B92
:1032D00000DD19E208365346002B0CD01EAB3360DC
:1032E000022373607B6802340133BC607B60072B70
:1032F00000DD15E208364B46802B00D15EE10B9BCA
:10330000109A9D1A002D36DDA94A7B689146102D32
:1033100026DD102221009246099C32002E004D46E7
:1033200003E0103E0832102E16DD504610310133F6
:1033300015605060B9607B60072BF2DD3A00079999
:10334000200002F033FE002800D034E4103EB968BB
:103350007B6832AA102EE8DCA9460C003500160066
:103360004A466419013332607560BC607B60072B8C
:1033700000DDBDE10836089BDB0500D5B8E0129BF7
:103380003360109B9C4673607B6864440133BC606F
:103390007B60072B00DD9FE00836089B5B0743D569
:1033A0000D9B0A9A9D1A002D3EDD824A7B6890464D
:1033B000102D27DD102221009146099C32002E009D
:1033C000454603E0103E0832102E17DD4846103106
:1033D000013315605060B9607B60072BF2DD3A0065
:1033E0000799200002F0E2FD002801D0FFF7E3FB7F
:1033F000103EB9687B6832AA102EE7DCA8460C00A4
:103400003500160042466419013324C6BC607B6057
:10341000072B09DD3A000799099802F0C7FD00283B
:1034200001D0FFF7C8FBBC680D9B0A9A934200DAF3
:1034300013000C9A94469C4463460C93002C00D0D5
:103440001AE1002332AE7B60FFF726FB149B012BB1
:1034500000DCF2E0129B01343360012373607B686F
:10346000BC6001337B60072B00DDC5E20836199A8A
:1034700001333260189A9846944664447260BC6086
:103480007B60072B00DDC4E208360022002316987B
:103490001799FEF7CBFC002800D0ACE1129D149BDD
:1034A0000135013B35607360E41801239C46E0441C
:1034B0004346BC607B60072B00DDCFE0083621ABC4
:1034C00033601A9B9C467360434664440133BC607E
:1034D0007B60072B00DC5FE73A000799099802F050
:1034E00065FD002801D0FFF766FBBC6832AE54E7EB
:1034F000139B652BAADD0022002316981799FEF76F
:1035000095FC002800D117E12B4B013433600123D7
:1035100073607B68BC6001337B60072B00DD9EE33A
:1035200008361F9B149A934203DB089BDB0700D4E9
:1035300033E7199B3360189B9C4673607B68644437
:103540000133BC607B60072B01DD00F0F4FB083623
:10355000149B5D1E002D00DC1FE7154A7B68914619
:10356000102D00DCC0E1102221009046099C3200A1
:103570002E004D4604E00832103E102E00DCAFE174
:1035800040461031013315605060B9607B60072BF5
:10359000F1DD3A000799200002F008FD002801D073
:1035A000FFF709FBB9687B6832AAE5E7988800084D
:1035B000B888000864880008B48800080D9B0A9A3F
:1035C0009D1A002D00DC9AE6D14A7B689146102DA9
:1035D00027DD102221009246099C32002E004D4624
:1035E00003E0103E0832102E17DD50461031013333
:1035F00015605060B9607B60072BF2DD3A000799D7
:10360000200002F0D3FC002801D0FFF7D4FA103ECE
:10361000B9687B6832AA102EE7DCA9460C00350099
:1036200016004A466419013332607560BC607B60E5
:10363000072B00DDFBE1083661E60123089A1342FF
:1036400000D007E773607B68129A0133013432605F
:10365000BC6098467B60072B00DC2FE73A00079997
:10366000099802F0A3FC002801D0FFF7A4FA7B68B8
:10367000BC68984632AE22E73A000799099802F0F2
:1036800095FC002800D1DCE6FFF795FA1022089996
:103690000A4000D19FE211980200006804320E90A7
:1036A00000200F9016A8C3770B9B002B00DA0CE1CB
:1036B000802399430E9B08911192002B00D092E435
:1036C00098460B9B002B00D16AE5002300240E9343
:1036D0000F9427220E9B28A930338B5416AB9C469F
:1036E0006F2532AB65445B1B10931295FFF7C5FA4B
:1036F0003A000799099802F059FC002801D0FFF719
:103700005AFABC6832AE36E63A000799099802F0D8
:103710004DFC002801D0FFF74EFABC6832AEDAE566
:103720003A000799099802F041FC002801D0FFF700
:1037300042FABC6832AEDEE51F98002800DC9DE24C
:10374000159A1499130091468B4200DD89464B4629
:10375000002B0CDD129B4C4433604B4673607B683E
:10376000BC6001337B60072B00DD97E308364B46D6
:10377000DB434A46DB171340159AD31A9846002BB1
:1037800000DCD7E0102B01DC00F006FD604A2100D0
:10379000914610227B689246099D32004C4646466F
:1037A00004E00832103E102E00DCB3E05046103129
:1037B000013314605060B9607B60072BF1DD3A0083
:1037C0000799280002F0F2FB002801D0FFF7F3F977
:1037D000B9687B6832AAE5E73A000799099802F0D0
:1037E000E5FB002801D0FFF7E6F916ABDB7FBC68EC
:1037F000984632AE5CE5149B5D1E002D00DC5EE653
:10380000434B9946102D29DD102332009A462E0095
:1038100021004346099C4D4603E0103E0832102E1D
:1038200017DD50461031013315605060B9607B6080
:10383000072BF2DD3A000799200002F0B7FB0028C1
:1038400001D0FFF7B8F9103EB9687B6832AA102E94
:10385000E7DCA9460C003500984616004B4675601B
:103860003360641921E6089BDB0600D4EBE0119A73
:1038700013680A930E930432DB170F93119201D44D
:10388000FFF7B9FA0E990F9A00244B4294410E9318
:103890000F942D2316AAD3770B9B002B00DAACE3F1
:1038A0008023089A9A43533B08929846FFF7B6FA4A
:1038B00011990A00096804320E9100210F9116A98E
:1038C000CB770B9B002B00DB2AE21192002398465A
:1038D0000E9A0F9B1100194301D0FFF79FFAF4E6EF
:1038E000A9460C00350016004A46641901333260BF
:1038F0007560BC607B60072B00DC4DE5ECE5119B3F
:103900001A6804330E92002211930F922EE4C046DF
:10391000B8880008B046A14616000C004A4632603E
:103920004246444401337260BC607B60072B00DD7B
:1039300035E30836129A159B944663449846149AC8
:103940001F9B934249DB089AD20746D4129A1499D6
:1039500015008C4642466544CB1AAD1A9D4200DDE7
:103960001D00002D0BDD424632607A686419013279
:103970007560BC607A60072A00DD2FE30836EA43F1
:10398000D21715405D1B002D00DC06E5D34A7B688D
:103990009146102DA8DD102221009046099C32008E
:1039A0002E004D4603E00832103E102E98DD4046B2
:1039B0001031013315605060B9607B60072BF2DD78
:1039C0003A000799200002F0F1FA002801D0FFF731
:1039D000F2F8B9687B6832AAE6E7199A3260189A59
:1039E000944672607A6864440132BC607A60072A47
:1039F00000DDC7E20836A9E73A000799099802F006
:103A0000D5FA002801D0FFF7D6F8BC687B6832AE43
:103A10002DE53A000799099802F0C8FA002801D06C
:103A2000FFF7C9F87B68BC68984632AE2DE53A00CE
:103A30000799099802F0BAFA002801D0FFF7BBF8FD
:103A4000BC6832AE5BE4089B119A5B0600D40FE7BA
:103A50000021535E0EE7169D179C2A0023002800C4
:103A6000210004F0B1FC002800D06EE30B9B013371
:103A700000D1E8E22023139D9D43472D00D1A6E10C
:103A80008023089A5B001A43179B1B92002B00DAD5
:103A9000EFE2169A9846002391460A93139C662CEF
:103AA00000D1AEE2462C00D172E12B00453B5942D9
:103AB00059410B9B4A469A4623AB049320AB8A4458
:103AC00003931FAB0293534601930223099800937B
:103AD000434600F071FC1290672C00D0F0E2129B7C
:103AE00053441C00089BDB0700D426E3002300227C
:103AF00048464146FEF79AF92300002809D1239B46
:103B00009C4206D930215A1C23921970239B9C4257
:103B1000F9D8129A9B1A1493472D00D1A8E1139B50
:103B2000652B00DCDEE2139B662B00D1E0E21F9BDD
:103B30001593159A14998A4200DA8AE2089BDB07EA
:103B400000D5F3E2D343DB171340109267221392A0
:103B50000A9A002A00D07FE10A931B9B16AA0893B9
:103B60000023D27F0B939046FFF790F811990A003B
:103B7000096804320E9100210F9116A9CB770B9B97
:103B8000002B00DBC8E01192002398460E9A0F9B91
:103B90001100194301D0FFF747F8FFF7F1F940236F
:103BA00008990B40E2D011980300008804330E906E
:103BB00000200F9016A8C2770B9A002A00DA11E1B4
:103BC000802291430E9A08911193002A01D0FFF7A9
:103BD00029F8FFF7CEF9402308990B4000D167E69A
:103BE00011980300008804330E9000200F9016A84F
:103BF000C2770B9A002A00DAF0E0802211930023AA
:103C000091430E9A08919846002A01D0FFF706F9D1
:103C100057E5089BDB060CD4089B5B0609D5694673
:103C2000119B098E1A680433089211801193FEF7D4
:103C300033FF119A0C991368196013000433119320
:103C4000FEF72AFF0B9B16AAD077002B01DAFEF7AE
:103C50009AFF8023089A9A430892FEF78FFF3A0052
:103C60000799099802F0A2F9002801D0FEF7A3FFF6
:103C7000BC6832AE55E41198FFF70EFB184B0134C7
:103C80003360012373607B68BC6001337B60072B6A
:103C900071DC0836002807D1149B002B04D1089B47
:103CA000DB0701D4FFF779FB199B3360189B1919C7
:103CB00073607B68B96001337B60072B00DD27E20E
:103CC000320008324442002C00DCB5E00348814653
:103CD000102C00DC4AE11026050008E0B888000836
:103CE000B48800080832103C102C00DC3DE1103193
:103CF000013315605660B9607B60072BF2DD3A0036
:103D00000799099802F052F9002801D0FEF753FFF5
:103D1000B9687B6832AAE6E780230899FFF722F9A1
:103D200080230899C5E42020089B013503430893AC
:103D30002B78FEF7EBFE3A000799099802F036F966
:103D4000002801D0FEF737FFBC6832AEFFF700FC59
:103D5000E54B1293FFF7D1F84021099801F0DAFA08
:103D6000079B18601861002800D15EE24023079A83
:103D70005361FEF785FE3A000799099802F016F99B
:103D8000002801D0FEF717FF1F98BC6832AE81E70C
:103D900023AB049320AB03931FAB029303230B9C31
:103DA000009301944A464346099800F005FBA24659
:103DB0001290129B53441C00139B462B00D095E697
:103DC000129B1B78302B0FD01F9BE4188EE60B9BA9
:103DD000002B00D054E601330B9351E611930023DE
:103DE000984675E51193CFE60022002348464146E8
:103DF000FEF71CF80028E7D1012352469B1A1F93B7
:103E0000E41873E6129A32AB9B1A1093FEF735FF53
:103E10001298FEF7E5FD020010900300FFF778F915
:103E20003A000799099802F0C1F8002801D0FEF77E
:103E3000C2FEB9687B6832AA1298013310601498E8
:103E40007B6044185060BC60072B01DDFFF744FB2A
:103E500008321600FFF7A1FA0A931B9B2D22089344
:103E60002D239846002316A9CA770B93FEF711FF5E
:103E70001F9CE31C1EDB0B9BA3421BDB159458E627
:103E800001204042FEF79EFE0E9B092B01D9FEF752
:103E9000CAFF1EE401246442FEF76DFF3A00079951
:103EA000099802F083F8002801D0FEF784FEBC6870
:103EB00032AE5CE4139B023B13936B464C229B187F
:103EC0001B78013C21AD1F942B70002C00DA5AE1C5
:103ED0002B236B70092C00DC31E116AA3B2394469E
:103EE0006344B0469A461E0020000A2102F078FD85
:103EF000013E3031317020000A2102F08BFC0400B9
:103F00000928F1DC330030345A1EE4B246461470FE
:103F10009846524500D376E14146791A2B0069183C
:103F200000E014789C70013301329942F9D116A94E
:103F30008C462E22434662449446FB1A63441499ED
:103F40005B1B0A009C4662441A931092012900DC14
:103F500027E1189A109B944663441A001093DB43A0
:103F6000DB17134000221592F2E5A94648460919CD
:103F7000013310605460B9607B60072B00DD4FE7B0
:103F8000083259E73A000799099802F00FF800281B
:103F900001D0FEF710FE1F9BBC6832AED6E43A009B
:103FA0000799099802F002F8002801D0FEF703FEF5
:103FB000BC6832AEBEE40B9B062B00D906231A0068
:103FC0001093DB43DB171A40002398460B9315939D
:103FD000464B0A9211941293FEF75EFE3A0007993F
:103FE000099801F0E3FF002801D0FEF7E4FD149BDF
:103FF0001F9ABC689B1A32AEC1E42D239846FEF787
:104000000DFF23AB049320AB03931FAB0293032359
:104010000B9C009301944A464346099800F0CCF962
:10402000A44601002200614412900C009246C7E6AB
:10403000002308909846FFF719F82D2316AAD37786
:104040009846FEF753FF2023139D9D431A3B0B9385
:1040500016E5189A149B9446159A63441093002A07
:1040600000DC94E01A00DB43DB1713406722139255
:104070006EE5802212069446169B9946179B634470
:1040800098462D230A9309E516ABDB7F11949846D9
:104090000B9B0A93109300230B931593FEF7F6FDE9
:1040A0009846089BDB0705D53021272328AAD15441
:1040B000FFF714FB0023109332AB1293FEF7DDFDE4
:1040C000129B53441C00139B472B00D00EE5089B0A
:1040D000DB0700D56DE6239B129A9B1A1493472D9C
:1040E00000D1C5E61F9CE8E678880008AC88000887
:1040F0001F9B1593002B5EDD0B9A002A34D1089A82
:10410000D20731D4109323E500200B90FEF7FFFC7B
:104110003A000799099801F049FF002801D0FEF7FD
:104120004AFD1F98B9687B6832AACBE5189A159B9F
:10413000944663441A00109395E7239BE9E43023E7
:104140003034AB70EC7022ABF9E6139B472B2FDCBD
:10415000414B12938023089A9A4316ABDB7F089257
:1041600098460323FEF7CEFE189A159B94466344A7
:1041700018000B9B9C46844463461093DB436246C5
:10418000DB171340E4E42D2364426B70A2E6109B1E
:10419000159A981A431CCDE7304A7B689146FFF781
:1041A000BDFB089BDB0700D5D3E6109A1300D6E6CB
:1041B0002B4B1293CEE70B9B002B02D1089BDB0706
:1041C00002D5189B581CD4E7012201231092BFE4AA
:1041D000119B1C1D1B680B93002B08DB6B78119443
:1041E0004546FEF793FC16ABD977FEF7EAFD0120B2
:1041F00040426B78119445460B90FEF787FC16AB56
:10420000D977FEF7ECFC16AA2E239446634496E673
:1042100016ABD977FEF7D9FF16ABD9771149FEF760
:1042200092FF16ABD977FFF729F80C23099A0138CA
:104230001360FEF7C7FC16ABD977FEF7DDFE16ABB1
:10424000D977FEF71FFE16ABD977FEF7A4FE16ABA3
:10425000D977FEF769FEC0467C880008B888000858
:104260008088000898880008F0B5444680465F467C
:1042700056464D464246F0B412690C6985B00B00B3
:1042800003910020944200DD8EE0142294466344A2
:1042900099464A46013CA300D6181422424493464C
:1042A0009B4433681500591C5B4618680292FDF761
:1042B00021FD031E019040D000272900B4461E00B6
:1042C0002300CA463C0000204F460D00994602CF0D
:1042D0000A04120C7243090C71431219130CC91809
:1042E0002B6812041B041B0C1B18120C9B1A2A6847
:1042F0000C0C0904120C090C1814511A09181B048F
:1043000008141B0C09040B4308C5BC45DFD25B46EF
:104310001B684C466646D146002B0ED15B46029A7E
:10432000043B9A4204D306E0043B013C9A4202D289
:1043300019680029F8D043461C610399404601F0F2
:1043400019FD00282FDB4F460020019B029D013301
:104350000193296804CF0B041B0C181813041B0CC1
:10436000C31A090C120C8A1A191452181B041014BF
:104370001B0C12041A4304C5BE42EAD20299A300E0
:104380008C4663441A68002A0DD1043B0A00994206
:1043900004D306E0043B013C9A4202D2196800298A
:1043A000F8D043461C61019805B03CBC9046994644
:1043B000A246AB46F0BDC046F0B55F4656464D46F8
:1043C0004446F0B414001D00016C99B08346259E4C
:1043D00002940395002909D00123426C93404A605E
:1043E0008B6001F0B5FA00235A461364039F002F37
:1043F00034DB002333603A00D34B1A409A421AD080
:10440000029C039D0022002320002900FDF70EFDE1
:10441000002829D00123249A1360269B002B00D169
:104420002EE2CA481860013819B03CBC9046994643
:10443000A246AB46F0BDC64B249A1360029B002BEC
:1044400000D1FDE1C348269B002BEDD0C278C31CF0
:10445000002A00D00533269A1360E5E7012368009F
:10446000470833600397C6E716AB019317AB009379
:1044700022002B00584601F029FD3E0D0A9000D184
:10448000E3E12B03B44A1B0B1A43B44B20009C46B8
:10449000169B110098460023664412930022B04BED
:1044A00003F03EFCAF4AB04B03F0C0F9AF4AB04B4B
:1044B00002F07AFB040030000D0003F0DBFFAD4A90
:1044C000AD4B03F0B3F902000B002000290002F00D
:1044D0006BFB04000D0003F097FF00220590002302
:1044E00020002900FDF7A8FC002800D0B6E2012337
:1044F000059C0D93162C10D8A049E300C918086834
:104500004968029A039BFDF7ABFC002800D1AAE39F
:104510002300013B059300230D9343469E1B00237C
:104520000693013EB24600D5A7E2059B002B00DAB8
:104530008BE29C460E930023E2440B93229B092BB3
:1045400000D99FE10124052B02DD0024043B2293C6
:10455000229B032B01D100F0D8FC01DC00F09DFC74
:10456000229B042B00D1A4E301230C93229B052B57
:1045700001D000F098FC239A059B944663440F9366
:10458000013308931D1E01DC00F066FC089D2E001F
:1045900000235A4600215364172E0AD901220433FE
:1045A0005B0018001430110001328642F8D25B46DD
:1045B0005964584601F0A4F95B46099018640E2D21
:1045C00000D972E1002C00D16FE1029B039C059E93
:1045D00010931194002E01DC00F031FD31000F2208
:1045E0001140CB0065493611CB181C685D68F10697
:1045F00001D400F0DAFC10981199614B16401A6A48
:104600005B6A02F0FDFD0323984602900391002EA1
:1046100014D0012399465A4F4B4633420AD0012306
:104620009C463A687B6820002900E04403F0FEF8CD
:1046300004000D0076100837002EEDD122000298FC
:1046400003992B0002F0DCFD06000F000D9B002BF0
:1046500009D00022404B30003900FDF7EDFB002867
:1046600001D000F0C7FD404603F004FF32003B00DC
:1046700003F0DCF80022434B02F096FA424A0B00AA
:1046800094466344029003910393089B002B01D14D
:1046900000F05CFC059B1493089B13930C9B002B70
:1046A00001D100F01AFD139B344A013BDB00D31803
:1046B0001A685B680020354902F0A2FD029A039B4C
:1046C00003F02EFB029003913900300003F09CFEB2
:1046D000050003F0CFFE02000B003000390003F0AC
:1046E0001FFB06000F00099A3035E9B21170541C07
:1046F00088460298039932003B00FDF7B1FB002881
:1047000000D08AE032003B000020134903F008FB90
:1047100002000B0002980399FDF7A2FB002801D0CC
:1047200000F0D8FD139B012B01DC00F083FC099AFB
:10473000139B944663449946534613935B46A246A3
:10474000029C039D029335E00000F07FB5880008CD
:104750000F270000D48800080000F03F01FCFFFF95
:104760000000F83F61436F63A787D23FB3C8608BF7
:10477000288AC63FFB799F501344D33FE88800083E
:10478000B089000800001C400000C0FC0000E03FB1
:1047900032003B000020BC4903F0C2FA22002B008B
:1047A000FDF74AFB002801D000F06CFDCA4501D19D
:1047B00000F03CFC0022B54B2000290003F036F845
:1047C0000022B24B04000D003000390003F02EF837
:1047D0000F00060003F018FE804603F04BFE0200B7
:1047E0000B003000390003F09BFA01239C4643463E
:1047F0003033DBB2984601234246E2445B425344E5
:104800001A709B4622002B0006000F00FDF714FBD8
:104810000028BDD0029B54469B46149B05930A99E1
:10482000584601F095F800232370059B249A013324
:104830001360269B002B00D1AAE31C600998F3E5C6
:10484000380300D0FEE59248FDE5169B9846179B7D
:1048500043441E008F4BF318202B00DCFEE18E4AF0
:104860000299B218D14040223800D31A9840084328
:1048700003F042FE0123894C013E091912930DE613
:104880008748D1E500235A4600215364584601F079
:1048900037F85B46186401235B4208930F930023AB
:1048A00023932293013309900C93179B002B00DA7A
:1048B000ABE0059A0E2A00DDA7E0D300794AD318B1
:1048C0005C681B6806930794239B002B00DAFBE1CE
:1048D000069E079F029C039D32003B00200029009A
:1048E00002F08EFC03F090FD804603F0C3FD320021
:1048F0003B0002F09BFF02000B002000290003F0A8
:104900000FFA4346099A30331370089B06000F00D4
:10491000541C012B4AD000225C4B02F087FF00227E
:10492000002306000F00FDF781FA002800D076E78B
:10493000099B089A9C469D1C5B466244AA46069CBD
:10494000079D914602930FE00022504B02F06EFF4C
:1049500001239C460022002306000F00E244FDF7DD
:1049600065FA002800D0DBE222002B00300039007D
:1049700002F046FC03F048FD804603F07BFD220078
:104980002B0002F053FF02000B003000390003F04F
:10499000C7F953464246013B303206000F00D3466A
:1049A0001A70D145D0D1029B54469B4632003B0041
:1049B0003000390002F0F8F806000F0002000B008A
:1049C00006980799FDF738FA00280CD10698079940
:1049D00032003B00FDF72AFA002800D11FE74346CA
:1049E000DB0700D41BE7651E2B78099A06E0954289
:1049F00000D153E3023C23782C00013D392BF6D043
:104A00009846434601332B7009E70C9A002A4BD095
:104A1000229A012A00DC79E1089B0B9A5D1EAA42CA
:104A200000DAB8E2551B089B002B00DAC5E3069CB0
:104A3000089B069A012194469C4462465846069279
:104A40009A4401F021F8070031E0069A059BD21A3A
:104A50005B420B93002306920E936FE5059F38008F
:104A600003F008FD0B00020029002000FDF7DEF92D
:104A700043424341FB1A059339E553465B42069393
:104A800000239A4651E5C0460000F03F0000244054
:104A9000C88800083204000012040000000010FE64
:104AA000B4880008E888000800270B9D069C002CAD
:104AB0000DD05346002B0ADD2300544500DDD5E020
:104AC000069AE41AD21A06925246D31A9A460B9BB9
:104AD000002B00DCF9E10C9A002A00D1C9E0002D7E
:104AE00000D1C6E039002A00584601F085F80A9B3B
:104AF00001001A0007005846984600F0CFFF4146D3
:104B00000600584600F024FF0B9B5B1B0B9300D064
:104B1000AEE00121584600F0B7FF0E9B8146002B06
:104B200000D1FFE01A000100584601F065F8229B11
:104B30008146012B00DCA3E000254B461B690333B3
:104B40009B004B44586800F053FF2023181A1F2382
:104B50005044184000D1E3E001331B1A042B00DC61
:104B6000BFE31C23181A069B24189C468444634602
:104B700082440693069B002B05DD31001A0058463F
:104B800001F098F806005346002B05DD49465246D1
:104B9000584601F08FF881460D9B002B00D061E153
:104BA000089B002B00DC92E10C9B002B00D0D0E096
:104BB0004B46099AB9460024089D90461F0006E01E
:104BC000310000230A22584600F0CCFE06003900CE
:104BD0003000FFF749FB4346303018550134AC42F2
:104BE000EEDB3B004F4699460290089C002C00DC0F
:104BF000E8E2099B9C460023984664443100012268
:104C0000584601F057F849460A9001F0B3F80028D9
:104C100000DCFFE1651E2B78099A06E0954200D181
:104C200077E1023C23782C00013D392BF6D001338B
:104C30002B704946584600F08BFE002F00D1EEE560
:104C40004346002B05D0B84503D04146584600F0F6
:104C50007FFE3900584600F07BFEE0E520220298F6
:104C6000D31A984004E600230D9356E4534627E7F1
:104C70000A960B9A0A99584600F0BEFF060048E7CC
:104C8000029B002B00D057E70299039A00251303DB
:104C900009D1DB4B134206D0069B01350133069345
:104CA00001239C46E2440E9B0120002B00D14EE7DD
:104CB00043E701230C93239B002B00DCC7E01E007D
:104CC0001D000F93089363E4089B002B00DDFFE5B4
:104CD00000D059E1069807990022CA4B02F0A6FDC0
:104CE000029A039BFDF7C6F8002300279946002887
:104CF00000D102E1239B099CDB43059349465846BA
:104D000000F026FE002F00D189E5A2E7129A002AC2
:104D100000D159E2BC4A0B9D9446069C634488E648
:104D20001C2020E7229B012B00DCB5E2002501209E
:104D30000DE7002339000A22584600F013FE0F9BAE
:104D40000700002B04DC229B022B00DDCFE20F9B2F
:104D50000893002C05DD39002200584600F0AAFF18
:104D60000700BA46002D00D09FE1089C099A013C3B
:104D70009446230063440A9301231500029AD846FF
:104D80001A404B46A94608920693069D300029001A
:104D9000FFF76AFA03000B903033390030000293BA
:104DA00000F0E8FF290004005246404601F000F8F8
:104DB000C3680500002B47D10100300000F0DAFF86
:104DC00083462900404600F0C3FD5B46229A134308
:104DD00003D1089B002B00D149E2002C00DAECE063
:104DE000229B1C4303D1089B002B00D1E5E05B46CE
:104DF000002B00DDCCE16A464B46127A5D1C1A702E
:104E00000A9B2C00994500D1D1E1310000230A22F0
:104E1000404600F0A7FD002306000A223900404664
:104E200057450BD000F09EFD5146070000230A2293
:104E3000404600F097FDA9468246A6E700F092FDA5
:104E4000A94607008246A0E701239B46B9E7012354
:104E500001250F930893239300235A46002153649E
:104E6000FFF7A7FB4946300000F084FF002800DB75
:104E700096E6059B3100013B05930A220023584624
:104E800000F070FD0C9B0600002B00D051E70F9B3B
:104E9000002B00DC0DE208938AE600230C93229B92
:104EA000022B00D107E700245B4621005C645846D2
:104EB00000F026FD5B46186401235B4208930F93C4
:104EC0000233099023940C93EFE40A9E21E6229B7F
:104ED000022B00DC68E6089B002B00D088E14946E5
:104EE0000522584600F03EFD01008146300000F0EA
:104EF00041FF0A96002800DCFCE63123099A137072
:104F0000059B541C01330593F8E600230C93FFF72F
:104F100032FB059B099A013305933123137088E610
:104F2000029B5C469B467AE4404603F0A3FA3200BB
:104F30003B0002F07BFC0022344B01F035FE344A8A
:104F40000B009446634402900391039300222D4B7F
:104F50003000390002F0E4FE029E039F32003B0065
:104F600004000D00FCF77CFF002800D0B1E0802099
:104F700000068446390061440B00320020002900FD
:104F8000FCF75AFF002855D0002300279946B1E6C8
:104F90000998FFF749FA0E9A0B9B9446EB1A9C442A
:104FA00063460B950E9300253DE5109A119B0292E6
:104FB000039302239846FFF72AFB5B46069A4D4669
:104FC000C3469146002B12DD31000122404600F01D
:104FD00071FE4946060000F0CDFE002800DC60E1CD
:104FE000029B392B00D1FBE00B9B313302936B46C4
:104FF0001B7AB8466C1C2B7057460A9619E6C046B9
:105000000000F07F000014403304000000001C404A
:105010000000C0FC002804D1029BDB0701D5F9E5A4
:105020001C00631E1A78302AFAD002E6139B9A46B7
:10503000029B9B46109B119C0293039435E4059BB5
:105040005C42002C00D1C5E0109811990F23A94AA9
:105050002340DB00D3181A685B6802F0E7FB2411D9
:1050600006000F00002C00D130E102239846013BDE
:105070009946A14D4B4623420AD001239C462A68FB
:105080006B6830003900E04402F0D0FB06000F00EE
:1050900064100835002CEDD1FFF7D8FA059B0133D9
:1050A000059330232B709846ABE47968584600F09E
:1050B00027FC390004003B690C319A1C92000C302B
:1050C000FDF7B8FB01222100584600F0F3FD8246AF
:1050D0004BE60023002799460FE7139B591ECB0090
:1050E00015918449C91808684968029A039B02F01F
:1050F0009DFB029003913900300003F085F9050013
:1051000003F0B8F902000B003000390002F008FE8D
:10511000139B0F0009991A008C4630356244060033
:105120004C1C0D709146012B1ED0A0460022734BE3
:105130003000390002F07AFB0F00060003F064F93A
:10514000050003F097F902000B003000390002F06F
:10515000E7FD30352570013406000F004C45E5D1E0
:10516000159B44469C466444002202980399644B74
:1051700001F01AFD32003B00FCF75EFE002862D011
:10518000651E2B78099A9846149B0593434635E48F
:10519000069B4D469946029BC346392B20D0029B65
:1051A000B84601336C1C2B7057460A9641E5069BA6
:1051B000C3469946B846574620E5069B089A9C1A6E
:1051C000002336E4012414E53623169A0B9D9B1A1E
:1051D000069C2EE40223109E119F9846FFF736FA94
:1051E0003923B8466C1C2B7057460A96099A1CE561
:1051F0000A967FE5089B002B00D195E60F9C002CBA
:1052000000DC17E7059B0022013B149330003B4B69
:10521000390002F00BFB060040460F00013003F09E
:1052200029F932003B0002F001FB0022354B01F06E
:10523000BBFC354A0B0094466344029003911394DF
:105240000393FFF72BFA029A039B00202C4902F0EC
:1052500067FD32003B00FCF703FE002801D1E9E6C0
:105260001C00631E1A78302AFAD0FFF7D6FA069B84
:105270004D469946029BC346392BB1D0002C00DD28
:10528000B2E6B4E6029B5D469B46149B54460593EA
:10529000099A4346FFF7B2FB029B002B00D045E57D
:1052A000F2E4002800D0A2E6029BDB0700D49EE6D1
:1052B00096E6229B022B1ADC4946FEF7D5FF099B96
:1052C000303018700F9B029008938EE402239846AA
:1052D000FFF7BCF9149B099A059315004346FFF7A5
:1052E0008DFB042B00D145E43C23181A3BE40F9BB3
:1052F0000893F0E5E8880008B08900080000244021
:105300000000E03F00001C400000C0FC0048704767
:1053100044040020F0B55F464D4656464446F0B47E
:105320000D000B3583B00700162D00D8A8E0072329
:105330009D4300D5CEE0A94200D9CBE000F0DCFAD5
:10534000F823FF339D4200D884E26B0A00D1C5E008
:10535000042B00D96CE13823A9099C4601339846F7
:10536000884443468C445900C94E89007118083955
:10537000CC68A14217D0032362689A431300521BE2
:105380000F2A00DDB0E00320002A09DB8DE063680E
:1053900083435A1B0F2A00DDA6E0002A00DB84E0CD
:1053A000E468A142F3D143460093320034690832E5
:1053B000944200D18FE10323616899430B00481B9D
:1053C0000F2800DD76E172613261002871DAB14A9E
:1053D000914200D934E10123C808821093407268D9
:1053E0001A43C3009B1998687260E360A0609C60D8
:1053F0001300C460012000998A109040984200D99F
:1054000075E003420CD1032291430A1D4000009233
:10541000034205D1009A4000043200920342F9D0C1
:1054200003239846009AD3009946B144CC4692464D
:105430006346DC68A44507D14FE1002A00DB5FE149
:10544000E468A44500D148E14246636893435A1B8F
:105450000F2AF2DD012163190D436560E068A5683C
:105460000836E86011438560F360B3603800DE60A1
:105470009E6059609A5000F041FA2000083022E006
:10548000102927D8380000F037FA1025062302210A
:105490007F4E9B00F3181A005C68083A944200D1D2
:1054A00027E1032362689A431300E268A168CA6097
:1054B00091600122E318596838000A435A6000F0ED
:1054C0001DFA2000083003B03CBC90469946A24625
:1054D000AB46F0BD0C2300203B60F4E74023984628
:1054E000013B80219C463FE7634600935DE7032331
:1054F000B46862689A439046AA4203D3521B0F2AAB
:1055000000DD87E023004344634A0193634B9346E5
:105510001B681268EB18013200D157E1604A9446CB
:1055200063441B0B1B0300930099380000F02CFD13
:1055300003008146013361D0019B834200D9FDE025
:10554000584B009A9A461B689C46534662441A6020
:10555000019B11004B4500D143E15B461B680133C1
:1055600000D14FE14B46019A9B1A591853461960D6
:1055700007234A46134000D117E1082189464A49CA
:10558000D21A9144C91A009B38004B441B051B0DCD
:10559000CB1A19009B4600F0F7FC431C00D135E103
:1055A0004B46C01A01235844184353461B685B44BA
:1055B0001900534619604B46B3605860B44213D08B
:1055C00043460F2B00D8E1E04346072260680C3BBE
:1055D0009343063A024005201A436260E218506085
:1055E00090600F2B00D915E1304B1A68914200D919
:1055F00019602F4B1A68914200D919600323B468CF
:1056000062689A431300521B9D4200D9C1E00F2AE1
:1056100000DCBEE0012329006519194313436160D2
:105620003800B5606B6000F069F9200008304AE787
:10563000142B74D9542B00D9B0E0290B6E238CE6BF
:105640004A0A042A74D9142A00D9C2E010005C3234
:105650005B305200082149428C469200B2189444B3
:10566000624692680B318846944500D1A0E04146DD
:1056700050688843834202D292689445F7D1D36838
:105680009C4673686146A260E1608C60D460B1E6BC
:105690007C040020FF01000088080020A8080020EA
:1056A0000F100000AC08002008100000A408002023
:1056B000A0080020012163190D4301436560736157
:1056C0003361DA609A6059601850380000F016F9BA
:1056D00020000830F7E673688CE608239B46073BFA
:1056E000DC449B46DA4443465246134200D09FE6D0
:1056F00033E0DC688A1C0092A34200D155E6D0E674
:105700000122E318596838000A435A60E368A26826
:10571000D3609A6000F0F2F820000830D3E65B22F4
:1057200094460132904698449C44434659001BE6F7
:105730008A0910003932383052008BE7B44200D069
:105740005CE7FDE6009B013B009308235B429C461F
:10575000E1444B469B6899457AD14346009A1342EF
:10576000F0D17368834373604000984200D9BEE66D
:10577000002800D1BBE6034270D152460092009A45
:105780004000043200920342F9D04BE601234A461E
:105790005360380000F0B2F8002094E6AA225200CC
:1057A00093420DD8E90B7723D7E580214901EAE63A
:1057B000012380108340726813437360624661E77F
:1057C000284A934218D8A90C7C23C6E510330093CD
:1057D000AAE6542A26D80A0B10006F326E30520007
:1057E00038E71B0500D0B8E6009BB26843441800B8
:1057F000012303435360F7E67F239846013BFE21D4
:105800009C46B1E55B464A461A60B1E6002301209A
:105810009B46CAE621003800083100F0DFFC534601
:105820001968E1E6AA204000824205D8CA0B1000A0
:105830007832773052000DE70A48824205D88A0C48
:1058400010007D327C30520004E7FE227E2001E70A
:10585000736889E7E9084B1C5B0019E6534600931F
:10586000E0E5C0465405000070B5CDB283073CD0DA
:10587000531E002A1FD00278AA421DD0032405E03F
:10588000002B18D00278013BAA4215D001302042EB
:10589000F6D1032B11D8002B0DD00278AA420BD0E1
:1058A000421CC01804E00132511E0978A9421AD0E6
:1058B00013009042F7D1002070BDFF220C021202AB
:1058C0002240FF24214011430C04094E0C4302687E
:1058D00008496240511891433142DED1043B043003
:1058E000032BF4D8D7E71800E6E71300D1E7C0464A
:1058F00080808080FFFEFEFE7047C0467047C04635
:10590000C36C70B504000D00002B0AD0AA009B18D0
:10591000186800280ED002681A6000230361C36073
:1059200070BD2122042100F0D9FBE064031EEDD1FB
:105930000020F5E70126AE40721D920001212000F3
:1059400000F0CCFB0028F3D045608660E5E7C04658
:10595000002906D04B68C26C9B00D3181A680A60F5
:1059600019607047F8B54F464646C0B40F008146EF
:105970000E001C0000200D691437396801300B043B
:105980001B0C5343090C51431B191C0C09191B0414
:105990000C0C1B0C0904CB1808C78542EDDC002C4D
:1059A00008D0B3689D420ADA2B1D9B00F31801351D
:1059B0005C60356130000CBC90469946F8BD736858
:1059C0004846591CFFF79CFF3100336980469A1CFA
:1059D00092000C310C30FCF72DFF4A467368D26CF4
:1059E0009B00D3181A6832601E604646DCE7C0464A
:1059F0000300010C0022002901D103041032190E0A
:105A000001D108321B02190F01D104321B01990F79
:105A100001D102329B00002B05DB20205B0000D46B
:105A20007047501CFCE71000FAE7C046036801000D
:105A30005A0708D00020DA0704D49A0720D402209D
:105A40009B080B60704718040022002801D11B0C32
:105A50001032FF20184201D108321B0A180701D169
:105A600004321B09980701D102329B08D80704D4DD
:105A70005B082020002BE5D001320B601000E1E72D
:105A80005B080B600130DDE710B50C000121FFF76A
:105A900037FF01234461036110BDC046F0B55F4686
:105AA00056464D464446F0B40E69146985B00F0061
:105AB0001500A64204DA3300170026000D001C0072
:105AC00033199846BB687968984500DD0131FFF7C6
:105AD00017FF14220300944663449B4643469B00F1
